:1000000071EF07F00000000000EF00F000000000BA
:0A0010000000000000000000F3D71C
:0E001C0000016AB102D08B9801D08B881200CF
:0E002A0000016AB102D08B9601D08B861200C5
:0E00380000016AB102D08D9601D08D861200B3
:0E00460000016AB102D0899401D089841200B1
:0E00540000016AB102D08B9C01D08B8C12008F
:0E00620000016AB102D08B9401D08B84120091
:0E00700000016AB102D08B9A01D08B8A120077
:0E007E0000016AB102D08B9E01D08B8E120061
:0E008C0000016AB102D08A9201D08A8212006D
:0E009A0000016AB102D08D9401D08D84120055
:0E00A80000016AB102D08F9201D08F82120047
:0E00B60000016AB102D08F9401D08F84120035
:0E00C40000016AB102D08B9801D08B88120027
:0E00D20000016AB102D08B9601D08B8612001D
:0E00E00000016AB102D08A9401D08A84120015
:0E00EE0000016AB102D08B9801D08B881200FD
:0E00FC0000016AB102D08B9601D08B861200F3
:0E010A0000016AB102D08F9001D08F801200E8
:0E01180000016AB102D08B9A01D08B8A1200CE
:0E01260000016AB102D08B9801D08B881200C4
:0E01340000016AB102D08B9601D08B861200BA
:0E01420000016AB102D08B9201D08B821200B4
:0E01500000016AB102D08B9A01D08B8A120096
:0E015E0000016AB102D08D9001D08D80120098
:10016C000F0121B302D00000FBD76AC01CFF1200A4
:0E017C00ACB202D00000FCD76AC0ADFF12008A
:0E018A0000016AB102D08B9001D08B80120070
:0E01980000016AB102D0899001D08980120066
:0E01A60000016AB102D08A9001D08A80120056
:0E01B40000016AB102D08D9201D08D8212003E
:0E01C20000016AB102D0899801D0898812002C
:0E01D00000016AB102D08B9801D08B8812001A
:0E01DE0000016AB102D08B9601D08B86120010
:0E01EC0000016AB102D0899201D0898212000E
:0E01FA0000016AB102D08B9C01D08B8C1200E8
:0E02080000016AB102D08B9E01D08B8E1200D5
:0E02160000016AB102D08B9801D08B881200D3
:0E02240000016AB102D08B9601D08B861200C9
:0A023200000E84B0010E006E1200F1
:0A023C00000EA4BA010E006E1200BD
:0A024600000E84B2010E006E1200DB
:0A025000000E81B0010E006E1200D6
:0A025A00000E82B2010E006E1200C9
:0A026400000E80B0010E006E1200C3
:0C026E00000E0F0121B3010E006E120003
:0A027A00000E9EBA010E006E120085
:0A028400000EACB2010E006E120075
:10028E001DCF01F00F0122A302D02299228901C0B5
:04029E0000F012005A
:0A02A200000E82B0010E006E120083
:1002AC00F250026EF29E0500FF6A0150FE6E005085
:0802BC00FD6E02BEF28E12007D
:1002C400AECF01F0ABA202D0AB98AB8801C000F076
:0202D400120016
:0A02D600000E82BA010E006E120045
:0A02E000000E82B8010E006E12003D
:0A02EA00000E86B4010E006E120033
:0A02F400000E82B6010E006E12002B
:0A02FE00000E84B6010E006E12001F
:0A030800000E82B6010E006E120016
:0A031200000E82B8010E006E12000A
:0A031C00000E80B4010E006E120006
:0A032600000E81B4010E006E1200FB
:0A033000000E86B2010E006E1200EE
:10033A007C0E466E010E476E6A0E486E000E496EBE
:10034A00C40E5A6E020E5B6E000E5C6E000E5D6E7F
:10035A007A0E526E020E536E000E546E000E556ED9
:10036A00840E566E020E576E000E586E000E596EAF
:10037A00AC8A900EAB6E948E949C9EAA03D0AECF9C
:06038A0000F0FBD7120099
:0A039000000E82B8010E006E12008C
:0A039A00000E84B4010E006E120084
:0A03A400000E82BA010E006E120076
:1003AE006C0E466E010E476E6A0E486E000E496E5A
:1003BE008E0E5A6E020E5B6E000E5C6E000E5D6E41
:1003CE003C0E526E020E536E000E546E000E556EA3
:1003DE006E0E566E020E576E000E586E000E596E51
:1003EE000F01218B900E226F98849892A4AA03D0AD
:0803FE001DCF00F0FBD7120037
:0A040600000E82B6010E006E120017
:0A041000000E82BC010E006E120007
:0A041A00000E82B6010E006E120003
:0A042400000E82BC010E006E1200F3
:0A042E00000E80B2010E006E1200F5
:0A043800000E82B6010E006E1200E5
:0A044200000E82BE010E006E1200D3
:0A044C00000E82B8010E006E1200CF
:0A045600000E80B8010E006E1200C7
:0A046000000E82B8010E006E1200BB
:0A046A00000E82B4010E006E1200B5
:0A047400000E81B2010E006E1200AE
:0A047E00000E82BE010E006E120097
:0A048800000E82BA010E006E120091
:0A049200000E86B0010E006E12008D
:0A049C00000E82B6010E006E120081
:0A04A600000E82B8010E006E120075
:1004B00021D0CF0EAF6EAC9440DF6BD0670EAF6E25
:1004C000AC943BDF66D0CF0EAF6EAC8436DF61D02C
:1004D000670EAF6EAC8431DF5CD0440EAF6EAC847F
:1004E0002CDF57D0220EAF6EAC8427DF52D0060E21
:1004F000006E58D0000E006E0001691908E100502E
:10050000681905E1120E671902E16651C00AD1E0CF
:10051000000E006E691908E10050681905E1250E0A
:10052000671902E16651800AC9E0000E006E691980
:1005300008E10050681905E14B0E671902E16651A8
:10054000000AC1E0000E006E691908E10050681948
:1005500005E1960E671902E16651000AB9E0000E46
:10056000006E691908E10050681905E1E10E67198C
:1005700002E16651000AB1E06951000A08E16851E0
:10058000010A05E16751C20A02E16651000AAAE0C8
:10059000AED77C0E426E010E436E6A0E446E000EA4
:0605A000456E006A120026
:1005A60038D00F0120870D0E1F6F040E1E6F218598
:1005B600FBDE7ED00F012087060E1F6F820E1E6F98
:1005C6002185F2DE75D00F012087030E1F6F400EC6
:1005D6001E6F2185E9DE6CD00F012087010E1F6F8B
:1005E600A00E1E6F2185E0DE63D00F012087010E6D
:1005F6001F6F150E1E6F2185D7DE5AD00F0120877B
:100606001F6B8A0E1E6F2185CFDE52D0060E006E3E
:1006160058D0000E006E0001691908E100506819F3
:1006260005E1120E671902E16651C00ABAE0000E32
:10063600006E691908E10050681905E1250E671971
:1006460002E16651800AB6E0000E006E691908E103
:100656000050681905E14B0E671902E16651000A60
:10066600B2E0000E006E691908E10050681905E154
:10067600960E671902E16651000AAEE0000E006EA2
:10068600691908E10050681905E1E10E671902E1F0
:100696006651000AAAE06951000A08E16851010A98
:1006A60005E16751C20A02E16651000AA7E0AED72A
:1006B6006C0E426E010E436E6A0E446E000E456E5F
:0406C600006A1200B4
:1006CA0059D0000167B102D0929201D092820F01F3
:1006DA00259376D0000167B102D0929801D0928812
:1006EA006FD0000167B102D0969201D0968268D08D
:1006FA00000167B102D0949601D0948661D00001BE
:10070A0067B102D0949801D094885AD0000167B199
:10071A0002D0949A01D0948A53D0000167B102D0D2
:10072A00949401D094844CD0000167B102D0939282
:10073A0001D0938245D0000167B102D0949E01D0C6
:10074A00948E3ED0000167B102D0949C01D0948C63
:10075A0037D0000167B102D0949601D0948630D088
:10076A00000167B102D0949801D0948829D0010E73
:10077A00006E28D000016651000AA3E06651010A02
:10078A00A9E06651020AADE06651030AB1E066517A
:10079A00040AB5E06651050AB9E06651060ABDE0E9
:1007AA006651070AC1E06651080AC5E06651090A9E
:1007BA00C9E066510A0ACDE066510B0AD1E0D7D7E3
:0607CA00000E006E12009B
:1007D00059D0000167B102D0929001D092800F01F0
:1007E000259176D0000167B102D0949001D0948019
:1007F0006FD0000167B102D0969001D0968068D08A
:10080000000167B102D0949601D0948661D00001B6
:1008100067B102D0949801D094885AD0000167B192
:1008200002D0949A01D0948A53D0000167B102D0CB
:10083000949201D094824CD0000167B102D0939081
:1008400001D0938045D0000167B102D0949E01D0C1
:10085000948E3ED0000167B102D0949C01D0948C5C
:1008600037D0000167B102D0949601D0948630D081
:10087000000167B102D0949801D0948829D0010E6C
:10088000006E28D000016651000AA3E06651010AFB
:10089000A9E06651020AADE06651030AB1E0665173
:1008A000040AB5E06651050AB9E06651060ABDE0E2
:1008B0006651070AC1E06651080AC5E06651090A97
:1008C000C9E066510A0ACDE066510B0AD1E0D7D7DC
:0608D000000E006E120094
:1008D60021D0CF0EAF6EAC942DDD6BD0670EAF6E10
:1008E600AC9428DD66D0CF0EAF6EAC8423DD61D02C
:1008F600670EAF6EAC841EDD5CD0440EAF6EAC846A
:1009060019DD57D0220EAF6EAC8414DD52D0060E20
:10091600006E58D0000E006E0001691908E1005003
:10092600681905E1120E671902E16651C00AD1E0A5
:10093600000E006E691908E10050681905E1250EE0
:10094600671902E16651800AC9E0000E006E691956
:1009560008E10050681905E14B0E671902E166517E
:10096600000AC1E0000E006E691908E1005068191E
:1009760005E1960E671902E16651000AB9E0000E1C
:10098600006E691908E10050681905E1E10E671962
:1009960002E16651000AB1E06951000A08E16851B6
:1009A600010A05E16751C20A02E16651000AAAE09E
:1009B600AED77C0E426E010E436E6A0E446E000E7A
:0609C600456E006A1200FC
:1009CC005DD0000167B102D0929401D092840F01E6
:1009DC0025957AD0000167B102D0969601D0968603
:1009EC0073D0000167B102D0969401D096846CD07C
:1009FC00000167B102D0949601D0948665D00001B5
:100A0C0067B102D0949801D094885ED0000167B190
:100A1C0002D0949A01D0948A57D0000167B102D0C9
:100A2C00989001D0988050D0000167B102D0939477
:100A3C0001D0938449D0000167B102D0989401D0C1
:100A4C0098840F01239540D0000167B102D0989291
:100A5C0001D098820F01239337D0000167B102D0E7
:100A6C00949601D0948630D0000167B102D094984E
:100A7C0001D0948829D0010E006E28D00001665157
:100A8C00000A9FE06651010AA5E06651020AA9E03E
:100A9C006651030AADE06651040AB1E06651050ADD
:100AAC00B5E06651060AB9E06651070ABDE0665129
:100ABC00080AC1E06651090AC7E066510A0ACDE08E
:0E0ACC0066510B0AD1E0D7D7000E006E120063
:100ADA0021D0CF0EAF6EAC942BDC6BD0670EAF6E0D
:100AEA00AC9426DC66D0CF0EAF6EAC8421DC61D02C
:100AFA00670EAF6EAC841CDC5CD0440EAF6EAC8467
:100B0A0017DC57D0220EAF6EAC8412DC52D0060E20
:100B1A00006E58D0000E006E0001691908E10050FD
:100B2A00681905E1120E671902E16651C00AD1E09F
:100B3A00000E006E691908E10050681905E1250EDA
:100B4A00671902E16651800AC9E0000E006E691950
:100B5A0008E10050681905E14B0E671902E1665178
:100B6A00000AC1E0000E006E691908E10050681918
:100B7A0005E1960E671902E16651000AB9E0000E16
:100B8A00006E691908E10050681905E1E10E67195C
:100B9A0002E16651000AB1E06951000A08E16851B0
:100BAA00010A05E16751C20A02E16651000AAAE098
:100BBA00AED77C0E426E010E436E6A0E446E000E74
:060BCA00456E006A1200F6
:100BD000300E00016625006E000E6721016E000ECA
:100BE0006821026E1C0E0024F66E000E0120F76EC6
:100BF000000E0220F86E0900F5CF4EF00900F5CF87
:100C00004FF00900F5CF50F00900F5CF51F0040E78
:100C10006625F66E000E6721F76E000E6821F86EED
:100C20000900F5CF4AF00900F5CF4BF00900F5CFE8
:0A0C30004CF00900F5CF4DF0120062
:100C3A0044C0E1FF45C0E2FF66C0E9FF67C0EAFFC2
:100C4A00EECFE6FF42C000F043C001F056EC01F0DF
:040C5A00006A12001A
:100C5E002BD062C066F063C067F064C068F065C0F8
:100C6E0069F032DE2FD062C066F063C067F064C0F8
:100C7E0068F065C069F015DC25D062C066F063C00F
:100C8E0067F064C068F065C069F086DC1BD062C096
:100C9E0066F063C067F064C068F065C069F016DF87
:100CAE0011D0010E006E0ED000016151000AD1E08C
:100CBE006151010AD8E06151020ADFE06151100A68
:060CCE00E6E0EFD7120082
:100CD40015D062C066F063C067F078DD1AD062C0D8
:100CE40066F063C067F0EFDC14D062C066F063C0E6
:100CF40067F06ADE0ED0010E006E0BD00001615168
:100D0400000AE7E06151010AEAE06151020AEDE0FC
:040D1400F2D7120000
:100D18004EC000F04FC001F056EC01F0005203E065
:0A0D2800010E006E01D0006A1200F7
:100D320061C066F062C067F063C068F048DF4CC013
:100D4200E1FF4DC0E2FF010EE66E4AC000F04BC06B
:080D520001F056EC01F0120063
:100D5A004CC0E1FF4DC0E2FFE66A4AC000F04BC05A
:080D6A0001F056EC01F012004B
:100D720061C05EF062C05FF00D0E0001606F0A0E8E
:100D8200646F33D05EC066F05FC067F055DF38D065
:100D92005EC0E9FF5FC0EAFFEE5208E05EC066F0A7
:100DA2005FC067F049DF5E4A5F2AF2D729D05EC092
:100DB200E9FF5FC0EAFFEE5208E05EC066F05FC086
:100DC20067F03ADF5E4A5F2AF2D7600E0001666F73
:100DD200000E676F31DF640E0001666F000E676FF1
:100DE2002BDF0ED0060E006E0CD000016351000AFC
:100DF200C9E06351010ACCE06351020AD8E0F2D79C
:040E0200006A120070
:100E06000001616B070E626F010E636F60DF000108
:100E1600616B010E626F636B5ADF100E0001616F2A
:100E2600800E626F250E636F000E646F656F14DFB0
:100E3600090E0B6E1E0E0C6EE40E0D6E0D2EFED7F9
:0C0E46000C2EFCD70B2EFAD70000120077
:100E52000900F5CFE6FF0006FBE10106F9E1120009
:100E62005ADF00C041F00050010A0DE14050000A73
:100E72000AE1010E406E2E0E0001616F000E626FDC
:100E8200020E636F75DF4050010A010ED8A4000EF6
:100E9200016E4150000A010ED8A4000E006E0150EE
:100EA200001609E0210E0001616F000E626F020E52
:080EB200636F5EDF406A12006D
:100EBA00F00E0001616F0E0E626F000E636F34DF79
:100ECA0047DF150E0001616F000E626F020E636F3D
:080EDA004BDF416A406A12007F
:0E0EE200BEEC07F08FDFE8DFBBDFFED7FFD7E7
:100F7C0010EE15F02B0E006E010E016E500EF66E7B
:0E0F8C000F0EF76E000EF86E29EC07F0120043
:100EF00098016A008A016A005E016A0034016A0092
:100F000026016A0050016A0042016A00A6016A00D7
:100F100008026A00FA016A0024026A0016026A00E6
:100F200064020000A2020000320200001A04000065
:100F30004C040000D60200005A02000050020000DB
:100F40004204000024040000380400006004000093
:0C0F5000496E697469616C697A6564001F
:0D0F5C004E656D6120506F6B726574610011
:100F6900506F6B72657420646574656B746F76611C
:020F79006E0008
:020000040030CA
:0E00000015137F7CF98B91FFFFC0FFE0FF40DE
:00000001FF
